13:50:35.524360 lo curl.345650 Out IP 127.0.0.1.58694 > 127.0.0.1.8000: Flags [S], seq 217911223, win 65495, options [mss 65495,sackOK,TS val 2363239505 ecr 0,nop,wscale 7], length 0, ParentProc [ptcpdump.345626]
        0x0000:  0000 0000 0000 0000 0000 0000 0800 4500  ..............E.
        0x0010:  003c 5a1f 4000 4006 e29a 7f00 0001 7f00  .<Z.@.@.........
        0x0020:  0001 e546 1f40 0cfd 0fb7 0000 0000 a002  ...F.@..........
        0x0030:  ffd7 fe30 0000 0204 ffd7 0402 080a 8cdc  ...0............
        0x0040:  2c51 0000 0000 0103 0307                 ,Q........
13:50:35.524995 lo curl.345650 In IP 127.0.0.1.58694 > 127.0.0.1.8000: Flags [S], seq 217911223, win 65495, options [mss 65495,sackOK,TS val 2363239505 ecr 0,nop,wscale 7], length 0, ParentProc [ptcpdump.345626]
        0x0000:  0000 0000 0000 0000 0000 0000 0800 4500  ..............E.
        0x0010:  003c 5a1f 4000 4006 e29a 7f00 0001 7f00  .<Z.@.@.........
        0x0020:  0001 e546 1f40 0cfd 0fb7 0000 0000 a002  ...F.@..........
        0x0030:  ffd7 fe30 0000 0204 ffd7 0402 080a 8cdc  ...0............
        0x0040:  2c51 0000 0000 0103 0307                 ,Q........
13:50:35.525108 lo curl.345650 Out IP 127.0.0.1.8000 > 127.0.0.1.58694: Flags [S.], seq 3879633683, ack 217911224, win 65483, options [mss 65495,sackOK,TS val 2363239505 ecr 2363239505,nop,wscale 7], length 0, ParentProc [ptcpdump.345626]
        0x0000:  0000 0000 0000 0000 0000 0000 0800 4500  ..............E.
        0x0010:  003c 0000 4000 4006 3cba 7f00 0001 7f00  .<..@.@.<.......
        0x0020:  0001 1f40 e546 e73e 8313 0cfd 0fb8 a012  ...@.F.>........
        0x0030:  ffcb fe30 0000 0204 ffd7 0402 080a 8cdc  ...0............
        0x0040:  2c51 8cdc 2c51 0103 0307                 ,Q..,Q....
13:50:35.525211 lo curl.345650 In IP 127.0.0.1.8000 > 127.0.0.1.58694: Flags [S.], seq 3879633683, ack 217911224, win 65483, options [mss 65495,sackOK,TS val 2363239505 ecr 2363239505,nop,wscale 7], length 0, ParentProc [ptcpdump.345626]
        0x0000:  0000 0000 0000 0000 0000 0000 0800 4500  ..............E.
        0x0010:  003c 0000 4000 4006 3cba 7f00 0001 7f00  .<..@.@.<.......
        0x0020:  0001 1f40 e546 e73e 8313 0cfd 0fb8 a012  ...@.F.>........
        0x0030:  ffcb fe30 0000 0204 ffd7 0402 080a 8cdc  ...0............
        0x0040:  2c51 8cdc 2c51 0103 0307                 ,Q..,Q....
13:50:35.525339 lo curl.345650 Out IP 127.0.0.1.58694 > 127.0.0.1.8000: Flags [.], ack 1, win 512, options [nop,nop,TS val 2363239505 ecr 2363239505], length 0, ParentProc [ptcpdump.345626]
        0x0000:  0000 0000 0000 0000 0000 0000 0800 4500  ..............E.
        0x0010:  0034 5a20 4000 4006 e2a1 7f00 0001 7f00  .4Z @.@.........
        0x0020:  0001 e546 1f40 0cfd 0fb8 e73e 8314 8010  ...F.@.....>....
        0x0030:  0200 fe28 0000 0101 080a 8cdc 2c51 8cdc  ...(........,Q..
        0x0040:  2c51                                     ,Q
13:50:35.525396 lo curl.345650 In IP 127.0.0.1.58694 > 127.0.0.1.8000: Flags [.], ack 1, win 512, options [nop,nop,TS val 2363239505 ecr 2363239505], length 0, ParentProc [ptcpdump.345626]
        0x0000:  0000 0000 0000 0000 0000 0000 0800 4500  ..............E.
        0x0010:  0034 5a20 4000 4006 e2a1 7f00 0001 7f00  .4Z @.@.........
        0x0020:  0001 e546 1f40 0cfd 0fb8 e73e 8314 8010  ...F.@.....>....
        0x0030:  0200 fe28 0000 0101 080a 8cdc 2c51 8cdc  ...(........,Q..
        0x0040:  2c51                                     ,Q
13:50:35.525536 lo curl.345650 Out IP 127.0.0.1.58694 > 127.0.0.1.8000: Flags [P.], seq 1:87, ack 1, win 512, options [nop,nop,TS val 2363239505 ecr 2363239505], length 86: HTTP: GET /notfound HTTP/1.1, ParentProc [ptcpdump.345626]
        0x0000:  0000 0000 0000 0000 0000 0000 0800 4500  ..............E.
        0x0010:  008a 5a21 4000 4006 e24a 7f00 0001 7f00  ..Z!@.@..J......
        0x0020:  0001 e546 1f40 0cfd 0fb8 e73e 8314 8018  ...F.@.....>....
        0x0030:  0200 fe7e 0000 0101 080a 8cdc 2c51 8cdc  ...~........,Q..
        0x0040:  2c51 4745 5420 2f6e 6f74 666f 756e 6420  ,QGET /notfound 
        0x0050:  4854 5450 2f31 2e31 0d0a 486f 7374 3a20  HTTP/1.1..Host: 
        0x0060:  3132 372e 302e 302e 313a 3830 3030 0d0a  127.0.0.1:8000..
        0x0070:  5573 6572 2d41 6765 6e74 3a20 6375 726c  User-Agent: curl
        0x0080:  2f37 2e38 312e 300d 0a41 6363 6570 743a  /7.81.0..Accept:
        0x0090:  202a 2f2a 0d0a 0d0a                       */*....
13:50:35.525652 lo curl.345650 In IP 127.0.0.1.58694 > 127.0.0.1.8000: Flags [P.], seq 1:87, ack 1, win 512, options [nop,nop,TS val 2363239505 ecr 2363239505], length 86: HTTP: GET /notfound HTTP/1.1, ParentProc [ptcpdump.345626]
        0x0000:  0000 0000 0000 0000 0000 0000 0800 4500  ..............E.
        0x0010:  008a 5a21 4000 4006 e24a 7f00 0001 7f00  ..Z!@.@..J......
        0x0020:  0001 e546 1f40 0cfd 0fb8 e73e 8314 8018  ...F.@.....>....
        0x0030:  0200 fe7e 0000 0101 080a 8cdc 2c51 8cdc  ...~........,Q..
        0x0040:  2c51 4745 5420 2f6e 6f74 666f 756e 6420  ,QGET /notfound 
        0x0050:  4854 5450 2f31 2e31 0d0a 486f 7374 3a20  HTTP/1.1..Host: 
        0x0060:  3132 372e 302e 302e 313a 3830 3030 0d0a  127.0.0.1:8000..
        0x0070:  5573 6572 2d41 6765 6e74 3a20 6375 726c  User-Agent: curl
        0x0080:  2f37 2e38 312e 300d 0a41 6363 6570 743a  /7.81.0..Accept:
        0x0090:  202a 2f2a 0d0a 0d0a                       */*....
13:50:35.525721 lo curl.345650 Out IP 127.0.0.1.8000 > 127.0.0.1.58694: Flags [.], ack 87, win 511, options [nop,nop,TS val 2363239505 ecr 2363239505], length 0, ParentProc [ptcpdump.345626]
        0x0000:  0000 0000 0000 0000 0000 0000 0800 4500  ..............E.
        0x0010:  0034 8bcd 4000 4006 b0f4 7f00 0001 7f00  .4..@.@.........
        0x0020:  0001 1f40 e546 e73e 8314 0cfd 100e 8010  ...@.F.>........
        0x0030:  01ff fe28 0000 0101 080a 8cdc 2c51 8cdc  ...(........,Q..
        0x0040:  2c51                                     ,Q
13:50:35.525804 lo curl.345650 In IP 127.0.0.1.8000 > 127.0.0.1.58694: Flags [.], ack 87, win 511, options [nop,nop,TS val 2363239505 ecr 2363239505], length 0, ParentProc [ptcpdump.345626]
        0x0000:  0000 0000 0000 0000 0000 0000 0800 4500  ..............E.
        0x0010:  0034 8bcd 4000 4006 b0f4 7f00 0001 7f00  .4..@.@.........
        0x0020:  0001 1f40 e546 e73e 8314 0cfd 100e 8010  ...@.F.>........
        0x0030:  01ff fe28 0000 0101 080a 8cdc 2c51 8cdc  ...(........,Q..
        0x0040:  2c51                                     ,Q
13:50:35.558547 lo curl.345650 Out IP 127.0.0.1.8000 > 127.0.0.1.58694: Flags [P.], seq 1:187, ack 87, win 512, options [nop,nop,TS val 2363239522 ecr 2363239505], length 186: HTTP: HTTP/1.0 404 File not found, ParentProc [ptcpdump.345626]
        0x0000:  0000 0000 0000 0000 0000 0000 0800 4500  ..............E.
        0x0010:  00ee 8bce 4000 4006 b039 7f00 0001 7f00  ....@.@..9......
        0x0020:  0001 1f40 e546 e73e 8314 0cfd 100e 8018  ...@.F.>........
        0x0030:  0200 fee2 0000 0101 080a 8cdc 2c62 8cdc  ............,b..
        0x0040:  2c51 4854 5450 2f31 2e30 2034 3034 2046  ,QHTTP/1.0 404 F
        0x0050:  696c 6520 6e6f 7420 666f 756e 640d 0a53  ile not found..S
        0x0060:  6572 7665 723a 2053 696d 706c 6548 5454  erver: SimpleHTT
        0x0070:  502f 302e 3620 5079 7468 6f6e 2f33 2e31  P/0.6 Python/3.1
        0x0080:  302e 3132 0d0a 4461 7465 3a20 5361 742c  0.12..Date: Sat,
        0x0090:  2030 3220 4e6f 7620 3230 3234 2031 333a   02 Nov 2024 13:
        0x00a0:  3530 3a33 3520 474d 540d 0a43 6f6e 6e65  50:35 GMT..Conne
        0x00b0:  6374 696f 6e3a 2063 6c6f 7365 0d0a 436f  ction: close..Co
        0x00c0:  6e74 656e 742d 5479 7065 3a20 7465 7874  ntent-Type: text
        0x00d0:  2f68 746d 6c3b 6368 6172 7365 743d 7574  /html;charset=ut
        0x00e0:  662d 380d 0a43 6f6e 7465 6e74 2d4c 656e  f-8..Content-Len
        0x00f0:  6774 683a 2034 3639 0d0a 0d0a            gth: 469....
13:50:35.558929 lo curl.345650 In IP 127.0.0.1.8000 > 127.0.0.1.58694: Flags [P.], seq 1:187, ack 87, win 512, options [nop,nop,TS val 2363239522 ecr 2363239505], length 186: HTTP: HTTP/1.0 404 File not found, ParentProc [ptcpdump.345626]
        0x0000:  0000 0000 0000 0000 0000 0000 0800 4500  ..............E.
        0x0010:  00ee 8bce 4000 4006 b039 7f00 0001 7f00  ....@.@..9......
        0x0020:  0001 1f40 e546 e73e 8314 0cfd 100e 8018  ...@.F.>........
        0x0030:  0200 fee2 0000 0101 080a 8cdc 2c62 8cdc  ............,b..
        0x0040:  2c51 4854 5450 2f31 2e30 2034 3034 2046  ,QHTTP/1.0 404 F
        0x0050:  696c 6520 6e6f 7420 666f 756e 640d 0a53  ile not found..S
        0x0060:  6572 7665 723a 2053 696d 706c 6548 5454  erver: SimpleHTT
        0x0070:  502f 302e 3620 5079 7468 6f6e 2f33 2e31  P/0.6 Python/3.1
        0x0080:  302e 3132 0d0a 4461 7465 3a20 5361 742c  0.12..Date: Sat,
        0x0090:  2030 3220 4e6f 7620 3230 3234 2031 333a   02 Nov 2024 13:
        0x00a0:  3530 3a33 3520 474d 540d 0a43 6f6e 6e65  50:35 GMT..Conne
        0x00b0:  6374 696f 6e3a 2063 6c6f 7365 0d0a 436f  ction: close..Co
        0x00c0:  6e74 656e 742d 5479 7065 3a20 7465 7874  ntent-Type: text
        0x00d0:  2f68 746d 6c3b 6368 6172 7365 743d 7574  /html;charset=ut
        0x00e0:  662d 380d 0a43 6f6e 7465 6e74 2d4c 656e  f-8..Content-Len
        0x00f0:  6774 683a 2034 3639 0d0a 0d0a            gth: 469....
13:50:35.559171 lo curl.345650 Out IP 127.0.0.1.58694 > 127.0.0.1.8000: Flags [.], ack 187, win 511, options [nop,nop,TS val 2363239522 ecr 2363239522], length 0, ParentProc [ptcpdump.345626]
        0x0000:  0000 0000 0000 0000 0000 0000 0800 4500  ..............E.
        0x0010:  0034 5a22 4000 4006 e29f 7f00 0001 7f00  .4Z"@.@.........
        0x0020:  0001 e546 1f40 0cfd 100e e73e 83ce 8010  ...F.@.....>....
        0x0030:  01ff fe28 0000 0101 080a 8cdc 2c62 8cdc  ...(........,b..
        0x0040:  2c62                                     ,b
13:50:35.559277 lo curl.345650 In IP 127.0.0.1.58694 > 127.0.0.1.8000: Flags [.], ack 187, win 511, options [nop,nop,TS val 2363239522 ecr 2363239522], length 0, ParentProc [ptcpdump.345626]
        0x0000:  0000 0000 0000 0000 0000 0000 0800 4500  ..............E.
        0x0010:  0034 5a22 4000 4006 e29f 7f00 0001 7f00  .4Z"@.@.........
        0x0020:  0001 e546 1f40 0cfd 100e e73e 83ce 8010  ...F.@.....>....
        0x0030:  01ff fe28 0000 0101 080a 8cdc 2c62 8cdc  ...(........,b..
        0x0040:  2c62                                     ,b
13:50:35.559705 lo curl.345650 Out IP 127.0.0.1.58694 > 127.0.0.1.8000: Flags [F.], seq 87, ack 656, win 512, options [nop,nop,TS val 2363239522 ecr 2363239522], length 0, ParentProc [ptcpdump.345626]
        0x0000:  0000 0000 0000 0000 0000 0000 0800 4500  ..............E.
        0x0010:  0034 5a24 4000 4006 e29d 7f00 0001 7f00  .4Z$@.@.........
        0x0020:  0001 e546 1f40 0cfd 100e e73e 85a3 8011  ...F.@.....>....
        0x0030:  0200 fe28 0000 0101 080a 8cdc 2c62 8cdc  ...(........,b..
        0x0040:  2c62                                     ,b
13:50:35.559765 lo curl.345650 In IP 127.0.0.1.58694 > 127.0.0.1.8000: Flags [F.], seq 87, ack 656, win 512, options [nop,nop,TS val 2363239522 ecr 2363239522], length 0, ParentProc [ptcpdump.345626]
        0x0000:  0000 0000 0000 0000 0000 0000 0800 4500  ..............E.
        0x0010:  0034 5a24 4000 4006 e29d 7f00 0001 7f00  .4Z$@.@.........
        0x0020:  0001 e546 1f40 0cfd 100e e73e 85a3 8011  ...F.@.....>....
        0x0030:  0200 fe28 0000 0101 080a 8cdc 2c62 8cdc  ...(........,b..
        0x0040:  2c62                                     ,b
13:50:35.559522 lo curl.345650 Out IP 127.0.0.1.8000 > 127.0.0.1.58694: Flags [P.], seq 187:656, ack 87, win 512, options [nop,nop,TS val 2363239522 ecr 2363239522], length 469, ParentProc [ptcpdump.345626]
        0x0000:  0000 0000 0000 0000 0000 0000 0800 4500  ..............E.
        0x0010:  0209 8bcf 4000 4006 af1d 7f00 0001 7f00  ....@.@.........
        0x0020:  0001 1f40 e546 e73e 83ce 0cfd 100e 8018  ...@.F.>........
        0x0030:  0200 fffd 0000 0101 080a 8cdc 2c62 8cdc  ............,b..
        0x0040:  2c62 3c21 444f 4354 5950 4520 4854 4d4c  ,b<!DOCTYPE HTML
        0x0050:  2050 5542 4c49 4320 222d 2f2f 5733 432f   PUBLIC "-//W3C/
        0x0060:  2f44 5444 2048 544d 4c20 342e 3031 2f2f  /DTD HTML 4.01//
        0x0070:  454e 220a 2020 2020 2020 2020 2268 7474  EN".        "htt
        0x0080:  703a 2f2f 7777 772e 7733 2e6f 7267 2f54  p://www.w3.org/T
        0x0090:  522f 6874 6d6c 342f 7374 7269 6374 2e64  R/html4/strict.d
        0x00a0:  7464 223e 0a3c 6874 6d6c 3e0a 2020 2020  td">.<html>.    
        0x00b0:  3c68 6561 643e 0a20 2020 2020 2020 203c  <head>.        <
        0x00c0:  6d65 7461 2068 7474 702d 6571 7569 763d  meta http-equiv=
        0x00d0:  2243 6f6e 7465 6e74 2d54 7970 6522 2063  "Content-Type" c
        0x00e0:  6f6e 7465 6e74 3d22 7465 7874 2f68 746d  ontent="text/htm
        0x00f0:  6c3b 6368 6172 7365 743d 7574 662d 3822  l;charset=utf-8"
        0x0100:  3e0a 2020 2020 2020 2020 3c74 6974 6c65  >.        <title
        0x0110:  3e45 7272 6f72 2072 6573 706f 6e73 653c  >Error response<
        0x0120:  2f74 6974 6c65 3e0a 2020 2020 3c2f 6865  /title>.    </he
        0x0130:  6164 3e0a 2020 2020 3c62 6f64 793e 0a20  ad>.    <body>. 
        0x0140:  2020 2020 2020 203c 6831 3e45 7272 6f72         <h1>Error
        0x0150:  2072 6573 706f 6e73 653c 2f68 313e 0a20   response</h1>. 
        0x0160:  2020 2020 2020 203c 703e 4572 726f 7220         <p>Error 
        0x0170:  636f 6465 3a20 3430 343c 2f70 3e0a 2020  code: 404</p>.  
        0x0180:  2020 2020 2020 3c70 3e4d 6573 7361 6765        <p>Message
        0x0190:  3a20 4669 6c65 206e 6f74 2066 6f75 6e64  : File not found
        0x01a0:  2e3c 2f70 3e0a 2020 2020 2020 2020 3c70  .</p>.        <p
        0x01b0:  3e45 7272 6f72 2063 6f64 6520 6578 706c  >Error code expl
        0x01c0:  616e 6174 696f 6e3a 2048 5454 5053 7461  anation: HTTPSta
        0x01d0:  7475 732e 4e4f 545f 464f 554e 4420 2d20  tus.NOT_FOUND - 
        0x01e0:  4e6f 7468 696e 6720 6d61 7463 6865 7320  Nothing matches 
        0x01f0:  7468 6520 6769 7665 6e20 5552 492e 3c2f  the given URI.</
        0x0200:  703e 0a20 2020 203c 2f62 6f64 793e 0a3c  p>.    </body>.<
        0x0210:  2f68 746d 6c3e 0a                        /html>.
13:50:35.559608 lo curl.345650 In IP 127.0.0.1.8000 > 127.0.0.1.58694: Flags [P.], seq 187:656, ack 87, win 512, options [nop,nop,TS val 2363239522 ecr 2363239522], length 469, ParentProc [ptcpdump.345626]
        0x0000:  0000 0000 0000 0000 0000 0000 0800 4500  ..............E.
        0x0010:  0209 8bcf 4000 4006 af1d 7f00 0001 7f00  ....@.@.........
        0x0020:  0001 1f40 e546 e73e 83ce 0cfd 100e 8018  ...@.F.>........
        0x0030:  0200 fffd 0000 0101 080a 8cdc 2c62 8cdc  ............,b..
        0x0040:  2c62 3c21 444f 4354 5950 4520 4854 4d4c  ,b<!DOCTYPE HTML
        0x0050:  2050 5542 4c49 4320 222d 2f2f 5733 432f   PUBLIC "-//W3C/
        0x0060:  2f44 5444 2048 544d 4c20 342e 3031 2f2f  /DTD HTML 4.01//
        0x0070:  454e 220a 2020 2020 2020 2020 2268 7474  EN".        "htt
        0x0080:  703a 2f2f 7777 772e 7733 2e6f 7267 2f54  p://www.w3.org/T
        0x0090:  522f 6874 6d6c 342f 7374 7269 6374 2e64  R/html4/strict.d
        0x00a0:  7464 223e 0a3c 6874 6d6c 3e0a 2020 2020  td">.<html>.    
        0x00b0:  3c68 6561 643e 0a20 2020 2020 2020 203c  <head>.        <
        0x00c0:  6d65 7461 2068 7474 702d 6571 7569 763d  meta http-equiv=
        0x00d0:  2243 6f6e 7465 6e74 2d54 7970 6522 2063  "Content-Type" c
        0x00e0:  6f6e 7465 6e74 3d22 7465 7874 2f68 746d  ontent="text/htm
        0x00f0:  6c3b 6368 6172 7365 743d 7574 662d 3822  l;charset=utf-8"
        0x0100:  3e0a 2020 2020 2020 2020 3c74 6974 6c65  >.        <title
        0x0110:  3e45 7272 6f72 2072 6573 706f 6e73 653c  >Error response<
        0x0120:  2f74 6974 6c65 3e0a 2020 2020 3c2f 6865  /title>.    </he
        0x0130:  6164 3e0a 2020 2020 3c62 6f64 793e 0a20  ad>.    <body>. 
        0x0140:  2020 2020 2020 203c 6831 3e45 7272 6f72         <h1>Error
        0x0150:  2072 6573 706f 6e73 653c 2f68 313e 0a20   response</h1>. 
        0x0160:  2020 2020 2020 203c 703e 4572 726f 7220         <p>Error 
        0x0170:  636f 6465 3a20 3430 343c 2f70 3e0a 2020  code: 404</p>.  
        0x0180:  2020 2020 2020 3c70 3e4d 6573 7361 6765        <p>Message
        0x0190:  3a20 4669 6c65 206e 6f74 2066 6f75 6e64  : File not found
        0x01a0:  2e3c 2f70 3e0a 2020 2020 2020 2020 3c70  .</p>.        <p
        0x01b0:  3e45 7272 6f72 2063 6f64 6520 6578 706c  >Error code expl
        0x01c0:  616e 6174 696f 6e3a 2048 5454 5053 7461  anation: HTTPSta
        0x01d0:  7475 732e 4e4f 545f 464f 554e 4420 2d20  tus.NOT_FOUND - 
        0x01e0:  4e6f 7468 696e 6720 6d61 7463 6865 7320  Nothing matches 
        0x01f0:  7468 6520 6769 7665 6e20 5552 492e 3c2f  the given URI.</
        0x0200:  703e 0a20 2020 203c 2f62 6f64 793e 0a3c  p>.    </body>.<
        0x0210:  2f68 746d 6c3e 0a                        /html>.
13:50:35.559705 lo curl.345650 Out IP 127.0.0.1.58694 > 127.0.0.1.8000: Flags [.], ack 656, win 508, options [nop,nop,TS val 2363239522 ecr 2363239522], length 0, ParentProc [ptcpdump.345626]
        0x0000:  0000 0000 0000 0000 0000 0000 0800 4500  ..............E.
        0x0010:  0034 5a23 4000 4006 e29e 7f00 0001 7f00  .4Z#@.@.........
        0x0020:  0001 e546 1f40 0cfd 100e e73e 85a3 8010  ...F.@.....>....
        0x0030:  01fc fe28 0000 0101 080a 8cdc 2c62 8cdc  ...(........,b..
        0x0040:  2c62                                     ,b
13:50:35.559768 lo curl.345650 In IP 127.0.0.1.58694 > 127.0.0.1.8000: Flags [.], ack 656, win 508, options [nop,nop,TS val 2363239522 ecr 2363239522], length 0, ParentProc [ptcpdump.345626]
        0x0000:  0000 0000 0000 0000 0000 0000 0800 4500  ..............E.
        0x0010:  0034 5a23 4000 4006 e29e 7f00 0001 7f00  .4Z#@.@.........
        0x0020:  0001 e546 1f40 0cfd 100e e73e 85a3 8010  ...F.@.....>....
        0x0030:  01fc fe28 0000 0101 080a 8cdc 2c62 8cdc  ...(........,b..
        0x0040:  2c62                                     ,b
13:50:35.560427 lo curl.345650 Out IP 127.0.0.1.8000 > 127.0.0.1.58694: Flags [F.], seq 656, ack 88, win 512, options [nop,nop,TS val 2363239523 ecr 2363239522], length 0, ParentProc [ptcpdump.345626]
        0x0000:  0000 0000 0000 0000 0000 0000 0800 4500  ..............E.
        0x0010:  0034 8bd0 4000 4006 b0f1 7f00 0001 7f00  .4..@.@.........
        0x0020:  0001 1f40 e546 e73e 85a3 0cfd 100f 8011  ...@.F.>........
        0x0030:  0200 fe28 0000 0101 080a 8cdc 2c63 8cdc  ...(........,c..
        0x0040:  2c62                                     ,b
13:50:35.560491 lo curl.345650 In IP 127.0.0.1.8000 > 127.0.0.1.58694: Flags [F.], seq 656, ack 88, win 512, options [nop,nop,TS val 2363239523 ecr 2363239522], length 0, ParentProc [ptcpdump.345626]
        0x0000:  0000 0000 0000 0000 0000 0000 0800 4500  ..............E.
        0x0010:  0034 8bd0 4000 4006 b0f1 7f00 0001 7f00  .4..@.@.........
        0x0020:  0001 1f40 e546 e73e 85a3 0cfd 100f 8011  ...@.F.>........
        0x0030:  0200 fe28 0000 0101 080a 8cdc 2c63 8cdc  ...(........,c..
        0x0040:  2c62                                     ,b
13:50:35.560549 lo curl.345650 Out IP 127.0.0.1.58694 > 127.0.0.1.8000: Flags [.], ack 657, win 512, options [nop,nop,TS val 2363239523 ecr 2363239523], length 0, ParentProc [ptcpdump.345626]
        0x0000:  0000 0000 0000 0000 0000 0000 0800 4500  ..............E.
        0x0010:  0034 5a25 4000 4006 e29c 7f00 0001 7f00  .4Z%@.@.........
        0x0020:  0001 e546 1f40 0cfd 100f e73e 85a4 8010  ...F.@.....>....
        0x0030:  0200 fe28 0000 0101 080a 8cdc 2c63 8cdc  ...(........,c..
        0x0040:  2c63                                     ,c
13:50:35.560602 lo curl.345650 In IP 127.0.0.1.58694 > 127.0.0.1.8000: Flags [.], ack 657, win 512, options [nop,nop,TS val 2363239523 ecr 2363239523], length 0, ParentProc [ptcpdump.345626]
        0x0000:  0000 0000 0000 0000 0000 0000 0800 4500  ..............E.
        0x0010:  0034 5a25 4000 4006 e29c 7f00 0001 7f00  .4Z%@.@.........
        0x0020:  0001 e546 1f40 0cfd 100f e73e 85a4 8010  ...F.@.....>....
        0x0030:  0200 fe28 0000 0101 080a 8cdc 2c63 8cdc  ...(........,c..
        0x0040:  2c63                                     ,c
